:020000040000FA
:100000000C944E000C9476000C9476000C947600C0
:100010000C9476000C9476000C9476000C94760088
:100020000C9476000C9476000C9476000C94760078
:100030000C9476000C9476000C9476000C94760068
:100040000C942E030C9476000C94FC020C94D602B3
:100050000C9476000C9478030C9476000C94760043
:100060000C9476000C94760005A84CCDB2D44EB911
:100070003836A9020C50B9918688083CA6AAAA2A4B
:10008000BE000000803F44544D46204465636F64C9
:1000900065722056305F30385000B70311241FBE00
:1000A000CFEFD8E0DEBFCDBF22E0AEE4B1E001C0CB
:1000B0001D92AC3DB207E1F711E0A0E0B1E0EAEB40
:1000C000F8E102C005900D92AE34B107D9F710E007
:1000D000CEE4D0E004C02197FE010E94630ACD3433
:1000E000D107C9F70E9462040C945B0C0C940000C9
:1000F0000895AF92BF92CF92DF92EF92FF920F934B
:100100001F93CF93DF936C017B018B01040F151FAD
:10011000EB015E01AE18BF08C017D10759F0699115
:10012000D601ED91FC910190F081E02DC601099579
:10013000892B79F7C501DF91CF911F910F91FF9026
:10014000EF90DF90CF90BF90AF900895FC01538D5A
:10015000448D252F30E0842F90E0821B930B5417A1
:1001600010F0CF96089501970895FC01918D828D2E
:10017000981761F0A28DAE0FBF2FB11D5D968C91C7
:10018000928D9F5F9F73928F90E008958FEF9FEF06
:100190000895FC01918D828D981731F0828DE80FC2
:1001A000F11D858D90E008958FEF9FEF0895FC017C
:1001B000918D228D892F90E0805C9F4F821B910949
:1001C0008F739927089580E691E00E94D70021E07F
:1001D000892B09F420E0822F089580E090E0892B9C
:1001E00029F00E94E30081110C9400000895FC01A5
:1001F000A48DA80FB92FB11DA35ABF4F2C91848D88
:1002000090E001968F739927848FA689B7892C93E4
:10021000A089B1898C91837080648C93938D848D37
:10022000981306C00288F389E02D80818F7D80833A
:100230000895EF92FF920F931F93CF93DF93EC01FA
:1002400081E0888F9B8D8C8D98131AC0E889F9897D
:10025000808185FF15C09FB7F894EE89FF89608380
:10026000E889F98980818370806480839FBF81E001
:1002700090E0DF91CF911F910F91FF90EF90089543
:10028000F62E0B8D10E00F5F1F4F0F731127E02E1E
:100290008C8D8E110CC00FB607FCFACFE889F98956
:1002A000808185FFF5CFCE010E94F700F1CFEB8D65
:1002B000EC0FFD2FF11DE35AFF4FF0829FB7F8942A
:1002C0000B8FEA89FB8980818062CFCFCF93DF9348
:1002D000EC01888D8823B9F0AA89BB89E889F9895E
:1002E0008C9185FD03C0808186FD0DC00FB607FC93
:1002F000F7CF8C9185FFF2CF808185FFEDCFCE01C6
:100300000E94F700E9CFDF91CF910895FC010190A1
:100310000020E9F73197AF01481B590BBC0180E67B
:1003200091E00C947900FC0180819181009711F09B
:100330000C94050B08950F931F93CF93DF93EC015B
:1003400088819981009759F02A813B8126173707C8
:1003500030F081E0DF91CF911F910F9108958B01D3
:100360006F5F7F4F0E948E0B009759F099838883AF
:100370001B830A832C813D81232B59F7FC011082BA
:10038000E8CF80E0E7CFEF92FF920F931F93CF93D8
:10039000DF93EC017B018A01BA010E949B01288155
:1003A0003981811114C02115310519F0C9010E944C
:1003B000050B198218821D821C821B821A82CE01B3
:1003C000DF91CF911F910F91FF90EF9008951D83C2
:1003D0000C83B701C9010E94540CF1CF2F923F92B8
:1003E0004F925F926F927F928F929F92AF92BF9245
:1003F000CF92DF92EF92FF920F931F93CF93DF93F1
:1004000000D000D000D0CDB7DEB79E838D83DC0155
:100410001C961D921D921D921C921F97FC01108626
:100420001186128613860091590110915A0120906D
:10043000570130905801200E311E14968D919D91D8
:100440000D90BC91A02D89839A83AB83BC83ED81F1
:10045000FE8180849184A284B384A5019401698182
:100460007A818B819C810E946F072B013C01AD81B9
:10047000BE811C96CD90DD90ED90FC901F972016CC
:10048000310631F1F80161918F011C968D929D9298
:10049000AD92BC921F976058770B072E000C880B0B
:1004A000990B0E9410074B015C01A7019601C30143
:1004B000B2010E9464089B01AC01C501B4010E9415
:1004C0006508ED81FE816087718782879387BFCF42
:1004D000A5019401C501B4010E946F074B015C01A5
:1004E000A7019601C701B6010E946F079B01AC01ED
:1004F000C501B4010E9465084B015C01A70196018A
:10050000C301B2010E946F079B01AC01C501B40198
:100510000E94640826960FB6F894DEBF0FBECDBFCA
:10052000DF91CF911F910F91FF90EF90DF90CF90CF
:10053000BF90AF909F908F907F906F905F904F9003
:100540003F902F900C949209CF92DF92EF92FF92FE
:10055000CF93DF93EC012BED3FE049EC50E4688151
:1005600079818A819B810E946F076B017C01609178
:1005700055017091560190E080E00E940E079B01AA
:10058000AC01C701B6010E94D6080E94D1089B01A8
:10059000AC010E9465086C837D838E839F83DF910D
:1005A000CF91FF90EF90DF90CF9008951F920F9220
:1005B0000FB60F9211242F933F934F935F936F9336
:1005C0007F938F939F93AF93BF93EF93FF9380E6B7
:1005D00091E00E94F700FF91EF91BF91AF919F9141
:1005E0008F917F916F915F914F913F912F910F90DC
:1005F0000FBE0F901F9018951F920F920FB60F927B
:1006000011242F938F939F93EF93FF93E0917001A9
:10061000F09171018081E0917601F091770182FD86
:100620001BC09081809179018F5F8F7320917A0137
:10063000821741F0E0917901F0E0E05AFE4F958F8A
:1006400080937901FF91EF919F918F912F910F905E
:100650000FBE0F901F9018958081F4CF1F920F92BC
:100660000FB60F9211242F933F938F939F93AF93C5
:10067000BF9380915C0190915D01A0915E01B0916A
:100680005F013091540123E0230F2D3758F5019677
:10069000A11DB11D2093540180935C0190935D01D5
:1006A000A0935E01B0935F01809150019091510140
:1006B000A0915201B09153010196A11DB11D8093EB
:1006C000500190935101A0935201B0935301BF91F7
:1006D000AF919F918F913F912F910F900FBE0F90EF
:1006E0001F90189526E8230F0296A11DB11DD2CFA9
:1006F0001F920F920FB60F9211242F933F938F9357
:100700009F93EF93FF9380915B0181111BC08091B8
:100710004E0190914F01209157013091580182175D
:100720009307E8F4E0915901F0915A019C012F5F81
:100730003F4F30934F0120934E0120917900E80FF5
:10074000F91F208380E286BBFF91EF919F918F91EB
:100750003F912F910F900FBE0F901F90189581E041
:1007600080935B0110924F0110924E01EBCFE0E6B7
:10077000F1E01382128288EE93E0A0E0B0E084837F
:100780009583A683B7838AE191E09183808385EC8A
:1007900090E09587848784EC90E09787868780EC4B
:1007A00090E0918B808B81EC90E0938B828B82EC3C
:1007B00090E0958B848B86EC90E0978B868B118EE6
:1007C000128E138E148EEDEFF1E010828FEF818385
:1007D0008283138280E090E0AAEFB3E48483958360
:1007E000A683B78380E895E29187808781E082873E
:1007F00080E090E2A7E9B4E4809348029093490234
:10080000A0934A02B0934B0280E090E0A7EAB4E4E0
:100810008093580290935902A0935A02B0935B02BE
:1008200080E090EAA8EBB4E48093680290936902B8
:10083000A0936A02B0936B0280E090E2ACECB4E467
:100840008093780290937902A0937A02B0937B020E
:1008500080E090E4AEE2B4E4809388029093890251
:10086000A0938A02B0938B0280E090E8A0E4B4E405
:100870008093980290939902A0939A02B0939B025E
:1008800080E090E0A5E5B4E48093A8029093A902EB
:10089000A093AA02B093AB0280E090E4ABE6B4E48C
:1008A0008093B8029093B902A093BA02B093BB02AE
:1008B00080E1E6E0F1E0A8ECB2E001900D928A95CB
:1008C000E1F70895CF93DF93CDB7DEB76B970FB6FF
:1008D000F894DEBF0FBECDBF789484B5826084BD2E
:1008E00084B5816084BD85B5826085BD85B5816034
:1008F00085BD80916E00816080936E0010928100B2
:10090000809181008260809381008091810081606C
:10091000809381008091800081608093800080912D
:10092000B10084608093B1008091B00081608093B9
:10093000B00080917A00846080937A0080917A0080
:10094000826080937A0080917A00816080937A003F
:1009500080917A00806880937A001092C100E091C3
:100960007001F091710182E08083E0916C01F0915F
:100970006D011082E0916E01F0916F0180E1808342
:1009800010927801E0917401F091750186E0808306
:10099000E0917201F0917301808180618083E09128
:1009A0007201F0917301808188608083E09172010F
:1009B000F0917301808180688083E0917201F091F1
:1009C000730180818F7D808306E810E0F8016491D7
:1009D000662341F080E691E00E9419010F5F1F4FEE
:1009E000892BA1F788E291E00E948601809105029F
:1009F0009091060228E032E030935A012093590189
:100A000020E430E030935801209357019093560131
:100A100080935501F8941092800089E180938100C1
:100A2000209155013091560150E040E060E074E2C1
:100A300084EF90E00E94220A215031093093870010
:100A40002093860080E480937C0080917C0080620B
:100A500080937C0080917E00816080937E0087E09F
:100A600080937B008BEE80937A00789488E492E008
:100A70000E94A40288E892E00E94A40288E592E025
:100A80000E94A40288E992E00E94A40288E692E013
:100A90000E94A40288EA92E00E94A40288E792E001
:100AA0000E94A40288EB92E00E94A4028BE291E0F3
:100AB0000E94860188E291E00E9486019E012D5EDF
:100AC0003F4F3E8B2D8B1E861D86188A1F861A8AE5
:100AD000198A50E040E06AE271E0CE010D960E9472
:100AE000C3018FB7F89420915C0130915D01409172
:100AF0005E0150915F01288F398F4A8F5B8F8FBFC6
:100B00002FB7F89480915C0190915D01A0915E01F6
:100B1000B0915F012FBF288D398D4A8D5B8D821B6F
:100B2000930BA40BB50B8A3F9105A105B10508F005
:100B300042C118861F821A8619861C861B8650E0C1
:100B400040E06AE271E0CE0107960E94C301809105
:100B50005B01882309F4BDC088E4682E82E0782E0A
:100B600000E0FF24FA941FEFB12CC12CD12CE12C12
:100B70001F8A812C912CA12CC3010E94EE011B0124
:100B80002C012F89382D492D5A2D0E9487091816BE
:100B90002CF4102F2F8A832C942CA52CC301805C5D
:100BA0009F4F0E94EE011B012C019B01AC016B2D9C
:100BB0007C2D8D2D9E2D0E94090787FF05C0F02EEC
:100BC000B22CC32CD42CE52C30E1630E711C0F5FCA
:100BD000043091F62090010230900202409003020E
:100BE000509004022F89382D492D5A2DC201B10190
:100BF0000E94090787FFD4C02B2D3C2D4D2D5E2D63
:100C0000C201B1010E94090787FFCAC08091FE019D
:100C10008113A4C08091FF018F11A0C08091FD01BC
:100C20008F3F19F08F5F8093FD011093FE01F092CA
:100C3000FF019091FD01809107029813A5C044E047
:100C40001402F0011124E350FE4FEF0DF11DF7FCEB
:100C5000FA95E553FF4F80811A8219821C821B820C
:100C60001E821D828B8B1C8AED89FE8901900020DB
:100C7000E9F73197AF018D899E89481B590BBE0159
:100C80006D5E7F4FCE0101960E94C3018F819885D2
:100C9000009709F468C069817A816115710509F4CA
:100CA00060C049855A852D813E814217530708F45B
:100CB00058C00E94540C8D819E819C878B871E8218
:100CC0001D82CE0101960E949301109200021092A3
:100CD0005B018B859C85892BE1F1EF81F885808113
:100CE0008823B9F18FB7F89420915C0130915D01B0
:100CF00040915E0150915F01288F398F4A8F5B8F41
:100D00008FBFEF80F884E114F104D9F00B851C85C6
:100D100001151105B1F089899A89080F191FB801C9
:100D2000CE010D960E949B01882359F02D853E85AA
:100D300089899A89B701820F931F0E94540C1A8BDC
:100D4000098B89899A89019799F58EE391E00E9430
:100D50008601CE0107960E949301D2CE1092FD012A
:100D600064CF0E94050B89819A8198878F838B813C
:100D70009C819A8789878D819E819C878B871A8227
:100D800019821C821B829BCF981708F0A0CF8091FC
:100D900000028F3F09F49BCF8F5F8093000297CFB3
:100DA0009FEF9093FE019093FF011092FD018FCF72
:100DB00089E491E0CCCF89899A89892BC9F0ED85A6
:100DC000FE8580818823A1F08AE291E00E9486015D
:100DD00088E291E00E94860149895A896D857E8565
:100DE00080E691E00E94790088E291E00E9486010D
:100DF000CE010D960E94930140E050E0452B09F48E
:100E000062CE0E94E300882309F45DCE0E940000B8
:100E10005ACE0E944B0708F481E00895E89409C077
:100E200097FB3EF490958095709561957F4F8F4F1D
:100E30009F4F9923A9F0F92F96E9BB279395F69533
:100E4000879577956795B795F111F8CFFAF4BB0FB1
:100E500011F460FF1BC06F5F7F4F8F4F9F4F16C015
:100E6000882311F096E911C0772321F09EE8872F9F
:100E7000762F05C0662371F096E8862F70E060E05B
:100E80002AF09A95660F771F881FDAF7880F9695D4
:100E9000879597F90895990F0008550FAA0BE0E878
:100EA000FEEF16161706E807F907C0F0121613062C
:100EB000E407F50798F0621B730B840B950B39F46C
:100EC0000A2661F0232B242B252B21F408950A26D2
:100ED00009F4A140A6958FEF811D811D08950E9400
:100EE00082070C94F3070E94E50738F00E94EC0794
:100EF00020F0952311F00C94DC070C94E2071124E8
:100F00000C9427080E94040870F3959FC1F3950F75
:100F100050E0551F629FF001729FBB27F00DB11D7D
:100F2000639FAA27F00DB11DAA1F649F6627B00D0D
:100F3000A11D661F829F2227B00DA11D621F739FF6
:100F4000B00DA11D621F839FA00D611D221F749F04
:100F50003327A00D611D231F849F600D211D822F4B
:100F6000762F6A2F11249F5750409AF0F1F0882372
:100F70004AF0EE0FFF1FBB1F661F771F881F91509F
:100F80005040A9F79E3F510580F00C94DC070C946B
:100F900027085F3FE4F3983ED4F3869577956795ED
:100FA000B795F795E7959F5FC1F7FE2B880F911DC9
:100FB0009695879597F9089597F99F6780E870E06F
:100FC00060E008959FEF80EC089500240A941616BF
:100FD000170618060906089500240A941216130627
:100FE000140605060895092E0394000C11F48823B5
:100FF00052F0BB0F40F4BF2B11F460FF04C06F5FD1
:101000007F4F8F4F9F4F089557FD9058440F551FA6
:1010100059F05F3F71F04795880F97FB991F61F07A
:101020009F3F79F087950895121613061406551FF1
:10103000F2CF4695F1DF08C0161617061806991F5D
:10104000F1CF86957105610508940895E894BB2752
:1010500066277727CB0197F908952F923F924F92F9
:101060005F926F927F928F929F92AF92BF92CF9238
:10107000DF92EF92FF920F931F93CF93DF93CDB741
:10108000DEB7CA1BDB0B0FB6F894DEBF0FBECDBFB9
:1010900009942A88398848885F846E847D848C848A
:1010A0009B84AA84B984C884DF80EE80FD800C8193
:1010B0001B81AA81B981CE0FD11D0FB6F894DEBF76
:1010C0000FBECDBFED0108955058BB27AA270E943F
:1010D0007C080C94F3070E94E50738F00E94EC07A7
:1010E00020F039F49F3F19F426F40C94E2070EF433
:1010F000E095E7FB0C94DC07E92F0E94040858F305
:10110000BA17620773078407950720F079F4A6F5EC
:101110000C9426080EF4E0950B2EBA2FA02D0B018F
:10112000B90190010C01CA01A0011124FF27591B2C
:1011300099F0593F50F4503E68F11A16F040A22F32
:10114000232F342F4427585FF3CF469537952795A3
:10115000A795F0405395C9F77EF41F16BA0B620BA2
:10116000730B840BBAF09150A1F0FF0FBB1F661FE9
:10117000771F881FC2F70EC0BA0F621F731F841F2C
:1011800048F4879577956795B795F7959E3F08F052
:10119000B0CF9395880F08F09927EE0F9795879514
:1011A00008950E944A09E3950C9473090E94EA0885
:1011B0000C94F3070E94EC0758F00E94E50740F0FA
:1011C00029F45F3F29F00C94DC0751110C94270897
:1011D0000C94E2070E94040868F39923B1F35523A5
:1011E00091F3951B550BBB27AA276217730784073A
:1011F00038F09F5F5F4F220F331F441FAA1FA9F3D0
:1012000035D00E2E3AF0E0E832D091505040E695BD
:10121000001CCAF72BD0FE2F29D0660F771F881F1E
:10122000BB1F261737074807AB07B0E809F0BB0B11
:10123000802DBF01FF2793585F4F3AF09E3F510525
:1012400078F00C94DC070C9427085F3FE4F3983E99
:10125000D4F3869577956795B795F7959F5FC9F70E
:10126000880F911D9695879597F90895E1E0660F8F
:10127000771F881FBB1F621773078407BA0720F008
:10128000621B730B840BBA0BEE1F88F7E095089571
:101290000C94E2070E940C08D8F3E894E0E0BB2726
:1012A0009F57F0F02AED3FE049EC06C0EE0FBB0F70
:1012B000661F771F881F28F0B23A620773078407FA
:1012C00028F0B25A620B730B840BE3959A9572F770
:1012D000803830F49A95BB0F661F771F881FD2F7AE
:1012E00090480C94D409EF93E0FF07C0A2EA2AEDDE
:1012F0003FE049EC5FEB0E947C080E94F3070F90EF
:10130000039401FC9058E8E6F0E00C94E7090E9491
:101310004B0708F48FEF089519F416F40C94E207C4
:101320000C94D2090E940C08B8F39923C9F3B6F3C0
:101330009F57550B87FF0E94E0090024A0E640EA72
:10134000900180585695979528F4805C660F771F1A
:10135000881F20F026173707480730F4621B730BED
:10136000840B202931294A2BA69517940794202510
:1013700031254A2758F7660F771F881F20F0261758
:101380003707480730F4620B730B840B200D311DB7
:10139000411DA09581F7B901842F9158880F96952A
:1013A000879508959F3F31F0915020F48795779568
:1013B0006795B795880F911D9695879597F908952C
:1013C00091505040660F771F881FD2F708959F9362
:1013D0008F937F936F93FF93EF939B01AC010E94D8
:1013E0006F07EF91FF910E94FB092F913F914F9161
:1013F0005F910C946F07DF93CF931F930F93FF922E
:10140000EF92DF927B018C01689406C0DA2EEF0127
:101410000E948207FE01E894A5912591359145919E
:101420005591A6F3EF010E947C08FE019701A801E7
:10143000DA9469F7DF90EF90FF900F911F91CF91B1
:10144000DF910895052E97FB1EF400940E94390A3F
:1014500057FD07D00E94410A07FC03D04EF40C94BC
:10146000390A50954095309521953F4F4F4F5F4F2A
:10147000089590958095709561957F4F8F4F9F4F00
:101480000895A1E21A2EAA1BBB1BFD010DC0AA1FC5
:10149000BB1FEE1FFF1FA217B307E407F50720F0DD
:1014A000A21BB30BE40BF50B661F771F881F991F58
:1014B0001A9469F760957095809590959B01AC01A1
:1014C000BD01CF010895EE0FFF1F0590F491E02DAF
:1014D00009940F931F93CF93DF938230910510F4FB
:1014E00082E090E0E091DA02F091DB0230E020E06F
:1014F000B0E0A0E0309799F42115310509F44AC015
:10150000281B390B24303105D8F58A819B81611560
:10151000710589F1FB0193838283FE0111C0408133
:1015200051810281138148175907E0F04817590784
:1015300099F4109761F012960C93129713961C93DE
:101540003296CF01DF91CF911F910F9108950093B3
:10155000DA021093DB02F4CF2115310551F0421766
:10156000530738F0A901DB019A01BD01DF01F80141
:10157000C1CFEF01F9CF9093DB028093DA02CDCF98
:10158000FE01E20FF31F81939193225031093983B9
:101590002883D7CF2091D8023091D902232B41F450
:1015A00020910201309103013093D9022093D80297
:1015B00020910001309101012115310541F42DB731
:1015C0003EB74091040150910501241B350BE09179
:1015D000D802F091D902E217F307A0F42E1B3F0BBB
:1015E0002817390778F0AC014E5F5F4F2417350795
:1015F00048F04E0F5F1F5093D9024093D802819359
:1016000091939FCFF0E0E0E09CCFCF93DF930097E2
:10161000E9F0FC01329713821282A091DA02B091B4
:10162000DB02ED0130E020E01097A1F42081318150
:10163000820F931F2091D8023091D90228173907C1
:1016400009F061C0F093D902E093D802DF91CF9105
:101650000895EA01CE17DF07E8F54A815B819E0114
:1016600041155105B1F7E901FB83EA83499159918D
:10167000C40FD51FEC17FD0761F48081918102969C
:10168000840F951FE90199838883828193819B83CD
:101690008A83F0E0E0E012968D919C911397009779
:1016A000B9F52D913C911197CD010296820F931FB0
:1016B0002091D8023091D9022817390739F630978E
:1016C00051F51092DB021092DA02B093D902A09386
:1016D000D802BCCFD383C28340815181840F951F30
:1016E000C817D90761F44E5F5F4F88819981480F11
:1016F000591F518340838A819B8193838283211563
:10170000310509F0B0CFF093DB02E093DA029ECF0F
:10171000FD01DC01C0CF13821282D7CFB0E0A0E080
:10172000E4E9FBE00C942F088C01009751F4CB0105
:101730000E94690A8C01C801CDB7DEB7E0E10C94C4
:101740004B08FC01E60FF71F9C0122503109E217FC
:10175000F30708F49DC0D901CD91DC911197C6170C
:10176000D70798F0C530D10530F3CE01049786171E
:10177000970708F3C61BD70B2297C193D1936D939C
:101780007C93CF010E94050BD6CF5B01AC1ABD0A3A
:101790004C018C0E9D1EA091DA02B091DB02512CFF
:1017A000412CF12CE12C109731F58091D8029091C9
:1017B000D9028815990509F05CC04616570608F04D
:1017C00058C08091000190910101009741F48DB7BC
:1017D0009EB74091040150910501841B950BE817B9
:1017E000F90708F055C0F093D902E093D802F90147
:1017F00071836083A0CF8D919C91119712966C900C
:10180000129713967C901397A815B90559F56C019A
:1018100042E0C40ED11CCA14DB0420F1AC014A1909
:101820005B09DA011296159780F062827382518308
:101830004083D9016D937C93E114F10471F0D701D9
:101840001396FC93EE93129776CF22968C0F9D1FE2
:10185000F90191838083F301EFCFF093DB02E093F2
:10186000DA0269CF4816590608F42C017D01D3012C
:101870009ACFCB010E94690A7C01009749F0AE0122
:10188000B8010E944B0CC8010E94050B870153CF81
:1018900010E000E050CFFB01DC0102C001900D928E
:1018A00041505040D8F70895FB01DC0101900D92A2
:1018B0000020E1F70895F894FFCF0000DC028000DB
:1018C0003134372A323538303336392341424344B4
:1018D0000000000019017900A6006601D700B500DC
:1018E000C9000D0A004544544D4620696E6974696B
:1018F000616C69736564210052656164696E673D5E
:081900003E2000202E20000013
:107800000C94343C0C94513C0C94513C0C94513CE1
:107810000C94513C0C94513C0C94513C0C94513CB4
:107820000C94513C0C94513C0C94513C0C94513CA4
:107830000C94513C0C94513C0C94513C0C94513C94
:107840000C94513C0C94513C0C94513C0C94513C84
:107850000C94513C0C94513C0C94513C0C94513C74
:107860000C94513C0C94513C11241FBECFEFD8E036
:10787000DEBFCDBF11E0A0E0B1E0ECE9FFE702C060
:1078800005900D92A230B107D9F712E0A2E0B1E065
:1078900001C01D92AD30B107E1F70E942D3D0C945F
:1078A000CC3F0C94003C982F959595959595959582
:1078B000905D8F708A307CF0282F295A8091C0000B
:1078C00085FFFCCF9093C6008091C00085FFFCCF60
:1078D0002093C6000895282F205DF0CF982F809127
:1078E000C00085FFFCCF9093C6000895EF92FF92F1
:1078F0000F931F93EE24FF2487018091C00087FD22
:1079000017C00894E11CF11C011D111D81E4E8164B
:1079100082E4F8068FE0080780E0180770F3E09132
:107920000401F091050109958091C00087FFE9CF1E
:107930008091C6001F910F91FF90EF9008950E94D3
:10794000763C982F8091C00085FFFCCF9093C600B5
:1079500091362CF490330CF09053892F089597555D
:10796000892F08951F930E949F3C182F0E949F3CCF
:107970001295107F810F1F9108951F93182F882350
:1079800021F00E94763C1150E1F71F9108951F935A
:10799000182F0E94763C803249F0809103018F5F5E
:1079A000809303018530C1F01F9108958091C0003C
:1079B00085FFFCCF84E18093C6008091C00085FFE5
:1079C000FCCF1093C6008091C00085FFFCCF80E102
:1079D0008093C6001F910895E0910401F091050184
:1079E00009951F9108950E94763C803241F0809164
:1079F00003018F5F80930301853081F008958091AA
:107A0000C00085FFFCCF84E18093C6008091C00058
:107A100085FFFCCF80E18093C6000895E0910401CA
:107A2000F09105010995089540E951E08823A1F0FE
:107A30002D9A28EE33E0FA013197F1F721503040CA
:107A4000D1F72D9828EE33E0FA013197F1F7215064
:107A50003040D1F7815061F708953F924F925F9285
:107A60006F927F928F929F92AF92BF92CF92DF924E
:107A7000EF92FF920F931F93CF93DF93000080E16B
:107A80008093C4001092C50088E18093C10086E015
:107A90008093C2005098589A259A81E00E94143D24
:107AA00024E1F22E9EE1E92E85E9D82E0FE0C02ECA
:107AB00010E1B12EAA24A394B1E49B2EA6E58A2E50
:107AC000F2E57F2EE0E26E2E79E4572E63E5462E36
:107AD00050E5352E0E94763C8033B1F18133B9F107
:107AE000803409F46FC0813409F476C0823409F41B
:107AF00085C0853409F488C0803531F1823521F1A3
:107B0000813511F1853509F485C0863509F48DC0BC
:107B1000843609F496C0843709F403C1853709F423
:107B200072C1863709F466C0809103018F5F80932C
:107B30000301853079F6E0910401F0910501099582
:107B40000E94763C803351F60E94F33CC3CF0E94E2
:107B5000763C803249F78091C00085FFFCCFF092DF
:107B6000C6008091C00085FFFCCF9092C600809136
:107B7000C00085FFFCCF8092C6008091C00085FFC9
:107B8000FCCF7092C6008091C00085FFFCCF609250
:107B9000C6008091C00085FFFCCF5092C600809146
:107BA000C00085FFFCCF4092C6008091C00085FFD9
:107BB000FCCF3092C6008091C00085FFFCCFB09210
:107BC000C60088CF0E94763C863808F4BDCF0E945C
:107BD000763C0E94F33C7ECF0E94763C803809F4CC
:107BE0009CC0813809F40BC1823809F43CC1883942
:107BF00009F48FC080E00E94C73C6CCF84E10E94F2
:107C0000BD3C0E94F33C66CF85E00E94BD3C0E94D3
:107C1000F33C60CF0E94763C809306010E94763C44
:107C2000809307010E94F33C55CF0E94763C80333D
:107C300009F41DC183E00E94BD3C80E00E94C73C66
:107C400049CF0E94763C809309020E94763C809343
:107C5000080280910C028E7F80930C020E94763C79
:107C6000853409F415C18091080290910902892B8D
:107C700089F000E010E00E94763CF801E85FFE4FDA
:107C800080830F5F1F4F80910802909109020817AF
:107C9000190788F30E94763C803209F045CF809125
:107CA0000C0280FF01C16091060170910701660F0F
:107CB000771F7093070160930601A0910802B091AD
:107CC00009021097C9F0E8E0F1E09B01AD014E0F09
:107CD0005F1FF999FECF32BD21BD819180BDFA9A17
:107CE000F99A2F5F3F4FE417F50799F76A0F7B1F4B
:107CF00070930701609306018091C00085FFFCCF5F
:107D0000F092C6008091C00085FFFCCFB092C60003
:107D1000E1CE83E00E94C73CDDCE82E00E94C73CFA
:107D2000D9CE0E94763C809309020E94763C8093D3
:107D300008028091060190910701880F991F909386
:107D40000701809306010E94763C853409F4A6C0A1
:107D500080910C028E7F80930C020E94763C8032D0
:107D600009F0B8CE8091C00085FFFCCFF092C6002C
:107D7000609108027091090261157105B9F140E046
:107D800050E080910C02A82FA170B82FB27011C0E2
:107D9000BB2309F45CC0E0910601F0910701319624
:107DA000F0930701E09306014F5F5F4F46175707B7
:107DB000E8F4AA2369F3F999FECF209106013091E6
:107DC000070132BD21BDF89A90B58091C00085FFB2
:107DD000FCCF9093C6002F5F3F4F30930701209355
:107DE00006014F5F5F4F4617570718F38091C00099
:107DF00085FDE5CE8091C00085FFF8CFE0CE81E023
:107E00000E94C73C67CE0E94763C803209F08CCE3F
:107E10008091C00085FFFCCFF092C6008091C00029
:107E200085FFFCCFE092C6008091C00085FFFCCFAB
:107E3000D092C6008091C00085FFFCCFC092C600E2
:107E40008091C00085FFFCCFB092C60043CEE09188
:107E50000601F091070194918091C00085FFFCCF4D
:107E60009093C6009CCF80E10E94C73C33CE0E9415
:107E7000763C0E94763C182F0E94763C112309F430
:107E800083C0113009F484C08FE00E94C73C22CE29
:107E900080910C02816080930C02E5CE80910C02EF
:107EA000816080930C0259CF809107018823880F4D
:107EB000880B8A2180930B02809106019091070123
:107EC000880F991F90930701809306018091080203
:107ED00080FF09C080910802909109020196909359
:107EE000090280930802F894F999FECF1127E091D6
:107EF0000601F0910701C8E0D1E08091080290915D
:107F00000902103091F40091570001700130D9F34B
:107F100003E000935700E89500915700017001308D
:107F2000D9F301E100935700E89509901990009169
:107F3000570001700130D9F301E000935700E89534
:107F40001395103498F011270091570001700130FB
:107F5000D9F305E000935700E895009157000170B0
:107F60000130D9F301E100935700E895329602976A
:107F700009F0C7CF103011F00296E5CF112480919F
:107F8000C00085FFB9CEBCCE8EE10E94C73CA2CD19
:0E7F900085E90E94C73C9ECDF894FFCF80008B
:00000001FF
